:100B8200436F64654C6F636B2050726F6772616D67
:100B9200006868782069732068616E64736F6D65A0
:100BA200005331333A46504C20205331343A4E42AE
:100BB2004C005331353A52455320205331363A4591
:100BC20053430050617373776F72643A00543A0072
:100BD2004F4B20005331363A456E74004552520055
:100BE2004E65775F50617373776F72643A00533169
:100BF200363A457363005468616E6B20796F7520D5
:0D0C020021210046726F6D3A0048485800ED
:0A113500014503024A044E01460082
:08000300120FC0120D0380FB77
:100FC0001212CD7BFF7A0B79827D017F0112115BBA
:100FD0007BFF7A0B79937D017F0212115B12076808
:100FE0008F49E54960F71212CDE4F5497F64FE129E
:030FF000117E224D
:100D030080371207688F49E54924F2601614601F83
:100D1300146042240370EB7F647E0012117E120E76
:100D23008980167F647E0012117E1208F1800A7F8B
:100D3300647E0012117E12000E7BFF7A0B79A37D75
:100D4300017F0112115B7BFF7A0B79B47D017F0276
:100D530012115B80AD7F647E0012117E1210B312FC
:040D630012CD809E8F
:10000E00E4F536F5371212CD7BFF7A0B79C57D01FB
:10001E007F0112115B7BFF7A0B79CF7D057F021278
:10002E00115BE545FB7A00753F017D077F021211DA
:10003E00BE1207688F49E54960F7D3940A503E7F98
:10004E00647E0012117EE544C394045022AE36AF96
:10005E00377C007D0A12035C8E368F37E54975F0CA
:10006E000A84E5F02537F537E43536F5360544755F
:10007E003F04AB37AA367D0D7F011211BEE54964F0
:10008E000B60030201387F64FE12117EE537654B6B
:10009E007004E536654A70467BFF7A0B79D27D0196
:1000AE007F0212115BE4F536F537F544754601759E
:1000BE004503E545FB7A00753F017D077F0212116E
:1000CE00BE753F04AB37AA367D0D7F011211BE7B84
:1000DE00FF7A0B79D67D0A7F0212115B804CE545C3
:1000EE00D3940040357BFF7A0B79DE7D017F0212BF
:1000FE00115BE4F536F537F5441545753F04AB480D
:10010E00AA477D0D7F011211BEE545FB7A00753FB2
:10011E00017D077F021211BE80107F647E001211D6
:10012E007E7F647E001212B880F0E549B40C1C7F0D
:10013E00647E0012117EE4F536F537F544753F0402
:10014E00AB37AA367D0D7F011211BEE549641060F2
:10015E000302003F7F64FE12117EE54664016003D8
:10016E00020238F536F537F5441212CD75450312F5
:10017E0012CD7BFF7A0B79E27D017F0112115B7B41
:10018E00FF7A0B79F07D0A7F0212115B1207688FDE
:10019E0049E54960F7D3940A503E7F647E00121100
:1001AE007EE544C394045022AE36AF377C007D0A00
:1001BE0012035C8E368F37E54975F00A84E5F0251B
:1001CE0037F537E43536F5360544753F04AB37AAB7
:1001DE00367D017F021211BEE549B40C267F647E86
:1001EE000012117EAE36AF377C007D0A12036E8E82
:1001FE00368F371544753F04AB37AA367D017F0223
:10020E001211BEE549B40B0D7F647E0012117E857E
:10021E00364A85374BE5496410600302019A7F64C4
:0A022E00FE12117EE4F5461212CD17
:0102380022A3
:100E8900120ED71207688F49E549B40D0D7F647EAC
:100E99000012117E120A69120ED7E549B40E0D7FB0
:100EA900647E0012117E1205CD120ED7E549B40FEA
:100EB9000D7F647E0012117E120D67120ED7E5496F
:0E0EC900B410C07F647E0012117E1212A222AD
:1008F1001212CD7BFF7A0B79C57D017F0112115B4D
:100901007BFF7A0B79CF7D057F0212115BE545FBF9
:100911007A00753F017D077F021211BE7BFF7A0BC2
:1009210079F07D0A7F0212115BE4F5441207688FAA
:1009310049E54960F7D3940A503E7F647E00121165
:100941007EE544C394045022AE47AF487C007D0A43
:1009510012035C8E478F48E54975F00A84E5F0255E
:1009610048F548E43547F5470544753F04AB48AAC7
:10097100477D0D7F011211BEE549640B6003020A38
:10098100267F64FE12117EE548654B7004E54765DC
:100991004A70467BFF7A0B79D27D017F0212115B8F
:1009A100E4F547F548F544754601754503E545FB12
:1009B1007A00753F017D077F021211BE753F04ABBE
:1009C10048AA477D0D7F011211BE1212E17FE87E18
:1009D100031212B81212A2804CE545D3940040359F
:1009E1007BFF7A0B79DE7D017F0212115BE4F54713
:1009F100F548F5441545753F04AB48AA477D0D7F81
:100A0100011211BEE545FB7A00753F017D077F02AA
:100A11001211BE80107F647E0012117E7F647E0001
:100A21001212B880F0E549B40C1C7F647E001211EB
:100A31007EE4F547F548F544753F04AB48AA477D88
:100A41000D7F011211BEE5496410600302092D7F7B
:100A510064FE12117EE546B4010A1212A2E4F546C3
:080A6100F547F5481212CD2201
:1010B3001212CD7BFF7A0B79F87D017F0112115B50
:1010C3007BFF7A0C79057D017F0212115B7BFF7A2E
:0C10D3000C790B7D067F0212115B80FE81
:0612F400C2A58F80D2A705
:0812FA007F027EEFDEFEDFFC47
:0113020022C8
:0A130300C2A61212F4C2A70212FAE9
:1011A000CFCDCFCECCCE12036E7C007D0A12036E63
:0411B000ED2430FFFB
:0A11B400D2A61212F4C2A70212FA2A
:10128C00AE07BE0104ED148006BE0209ED243F44F6
:06129C0080FF1213032283
:1012CD007F381213037F0C1213037F061213037F53
:0412DD0001021303F4
:0A130D00AC0312128CAF040211B4FD
:06115B008B3B8A3C893D3C
:1011610012128CE4FDAB3BAA3CA93D8D8275830034
:0C11710012032FFF60061211B40D80E97C
:01117D00224F
:0C0FF3007F0AEA24FFFDE434FFFC7E00CE
:080FFF008E408F418C428D43AE
:101007007F017E00E4FBEBC39543E5426480F874FF
:0E1017008098500AAC40AD4112035C0B80E89B
:0110250022A8
:0411BE008A3D8B3E9D
:1011C20012128CAA3FEAD39400400D120FF3AC3DE9
:0811D200AD3E1211A01A80EDE0
:0111DA0022F2
:100F150012128CC3EA64809480400B7F2B1211B4AB
:100F25008A528B53800E7F2D1211B4C3E49BF55367
:100F3500E49AF552AA51EAD39400400D120FF3AC8E
:090F450052AD531211A01A80ED07
:010F4E002280
:040F4F008A568B57DC
:100F530012128CAA58EAD3940040297F10120FF57D
:100F6300AC56AD57CFCDCFCECCCE12036EEF540FD0
:100F7300FEC3940AEE5004243080022437FF12117A
:040F8300B41A80D14B
:010F87002247
:040F88008A5B8B5C99
:100F8C0012128CAA5DEAD394004028EA24FFFDE4F7
:100F9C0034FFFC7F027E00120FFFAC5BAD5CCFCD4B
:100FAC00CFCECCCE12036EEF54012430FF1211B40D
:030FBC001A80D2C6
:010FBF00220F
:05132E00007FF7DFFE67
:011333002297
:04117E00AD07AC0607
:10118200E4FBFAED25E0FFEC33FEC3EB9FEA9E5051
:0D1192000CB29512132E0BBB00010A80E673
:01119F00222D
:10076800E4F53B7590FFC2932097137F14FE121295
:10077800B83097FD7F147E001212B8753B012096A1
:10078800147F147E001212B83096FD7F147E00127A
:1007980012B8753B052095147F147E001212B830EC
:1007A80095FD7F147E001212B8753B092094147FC2
:1007B800147E001212B83094FD7F147E001212B815
:1007C800753B0D7590FFC2922097147F147E00121E
:1007D80012B83097FD7F147E001212B8753B0220C4
:1007E80096147F147E001212B83096FD7F147E0096
:1007F8001212B8753B062095147F147E001212B8A9
:100808003095FD7F147E001212B8753B0A209414AF
:100818007F147E001212B83094FD7F147E001212ED
:10082800B8753B0E7590FFC2912097147F147E0017
:100838001212B83097FD7F147E001212B8753B0370
:100848002096147F147E001212B83096FD7F147E15
:10085800001212B8753B072095147F147E001212FF
:10086800B83095FD7F147E001212B8753B0B2094AA
:10087800147F147E001212B83094FD7F147E00128B
:1008880012B8753B0F7590FFC2902097147F147EA5
:10089800001212B83097FD7F147E001212B8753B13
:1008A800042096147F147E001212B83096FD7F142F
:1008B8007E001212B8753B082095147F147E001232
:1008C80012B83095FD7F147E001212B8753B0C20CB
:1008D80094147F147E001212B83094FD7F147E00A9
:0808E8001212B8753B10AF3B82
:0108F00022E5
:1012B800EF1FAC0670011E4C600A7D027CEFDCFE5D
:0412C800DDFC80ECDD
:0112CC0022FF
:100DCA00E4F56020B1137F14FE1212B830B1FD7F32
:100DDA00147E001212B875600120B0147F147E00D0
:100DEA001212B830B0FD7F147E001212B87560027C
:100DFA0020B2147F147E001212B830B2FD7F147E26
:100E0A00001212B875600320B3147F147E00121208
:100E1A00B830B3FD7F147E001212B8756004AF605B
:010E2A0022A5
:10125E0043878075985053890F438920758DFF758C
:07126E008BFFD28EC2AB2200
:081317008F993099FDC2992263
:07131F003098FDC298AF9960
:0113260022A4
:10040C0046696E6765722049443A0053393A2B535A
:10041C0031303A5F5331323A4F4B00506C65617357
:10042C006550757446696E67657231005375636308
:10043C0065737366756C456E7472793100506C65BA
:10044C0061736550757446696E67657232005375D9
:10045C00636365737366756C456E747279320020D4
:10046C00202020494420697300202020416464200E
:10047C002066696E6765722020002046696E67658C
:10048C007220506C6561736520005331333A4F4BC9
:10049C0020205331363A45736300205365617263F3
:1004AC00682073756363657373200049443A005385
:1004BC0031363A45736300205365617263682020BE
:1004CC006661696C656420005331363A45534300CC
:1004DC00202020456D70747920416C6C3F202020C9
:1004EC00005331353A59455320205331363A4E4F4B
:1004FC0000202020656D707479696E6720202020A3
:10050C002000202020416C6C20656D7074792020B7
:10051C002020004C6F6164696E67002A00446F6391
:10052C006B696E6720206661696C75726500446F3B
:10053C00636B696E67202073756363657373004624
:10054C00696E6765727072696E742054657374009D
:10055C005331333A46696E20205331343A41646446
:10056C00005331353A44656C20205331363A4553AB
:10057C0043000100071300000000001BEF01FFFF08
:10058C00FFFF0100030100050100031D0021010014
:10059C000804010000001300210100080401000000
:1005AC0003E700F801000402010008010004020244
:1005BC0000090100030500090100030D00110000F2
:0105CC00002E
:10113F0001140101080002090000090B0100060655
:05114F0001000B001976
:1010DF00E4F53CF53D7488253DF5827405353CF506
:1010EF0083E493FF121317053DE53D7002053CC3E2
:0A10FF009406E53C6480948040DB19
:0111090022C3
:10102600E4F537F5381210DFE4F537F538747E2528
:1010360038F58274053537F583E493FF12131705E7
:1010460038E53870020537C3940AE5376480948022
:0210560040DB7D
:011058002275
:0211DB008F3B48
:1011DD00E4F53CE53CC3953B500E12131F741625E8
:0811ED003CF8A607053C80EB6D
:0111F50022D7
:1011F6001210DFE4F53BE53B90058E93FF121317C3
:09120600053BE53BC3940640EDF5
:01120F0022BC
:101210001210DFE4F53BE53B9005B093FF12131786
:09122000053BE53BC3940740EDDA
:0112290022A2
:10105900E4F536E53690058893FF1213170536E552
:1010690036C3940640EDE4F536E5369005B793FFAF
:0C1079001213170536E536C3940740ED4E
:011085002248
:10122A001210DFE4F53BE53B9005A593FF12131777
:09123A00053BE53BC3940B40EDBC
:011243002288
:101244001210DFE4F536E5369005BE93FF1213174E
:091254000536E536C3940640EDB1
:01125D00226E
:10108600E4F536E53690058893FF1213170536E525
:1010960036C3940640EDE4F536E5369005C493FF75
:0C10A6001213170536E536C3940640ED22
:0110B200221B
:020C9B00AB07A5
:100C9D00E4F539F538F537F536EEF510EBF511E4E9
:100CAD00F53A740B253AF8E6FFE4FCFDFEE5392F25
:100CBD00F539EE3538F538ED3537F537EC3536F5A0
:100CCD0036053AE53AB407DAE4FFE538FEE4FDFC13
:100CDD0078081203F98F12E539FF8F131210DFE434
:100CED00F53A740B253AF8E6FF121317053AE53A73
:050CFD00C3940940ED65
:010D020022CE
:1005CD001212CD7BFF7A04790CE4FD7F0112115BD1
:1005DD007BFF7A047917E4FD7F0212115B753F03EF
:1005ED00AB0AAA097D0E7F011211BE1207688F1585
:1005FD00E515B4092B7F647E0012117E050AE50A0C
:10060D0070020509AE09FF7C017D2C1203C38C0914
:10061D008D0A753F03AB0AAA097D0E7F011211BE2B
:10062D00E515B40A2C7F647E0012117EE50A150AC9
:10063D0070021509C3E5096480948050067509019F
:10064D00750A2B753F03AB0AAA097D0E7F011211A6
:10065D00BEE515640C60030207317F64FE12117E46
:10066D001212CD7BFF7A047927E4FD7F0112115B15
:10067D001211F67F0C1211DBE51F70417F64FE1223
:10068D0012B81212107F0C1211DB1212CD7BFF7AF1
:10069D00047938E4FD7F0112115B7F647E00121135
:1006AD007E7F647E001212B87BFF7A047949E4FDE7
:1006BD007F0112115B1211F67F0C1211DBE51F7019
:1006CD00637FC8FE1212B81212CD7BFF7A04795ADD
:1006DD00E4FD7F0112115B7BFF7A04796BE4FD7FF2
:1006ED000212115B753F03AB0AAA097D0B7F021243
:1006FD0011BE1210597F0C1211DB1212447F0C1215
:10070D0011DBAF0AAE09120C9B7F0C1211DB7F645B
:10071D007E0012117E7FE87E031212B8050AE50AEB
:10072D0070020509E515640E70277BFF7A04797553
:10073D00FD7F0112115B7BFF7A04796BE4FD7F0273
:10074D0012115B753F03AB0AAA097D0B7F021211D3
:0B075D00BEE515641060030205F822E1
:100A6900E4F536F53778387C00FD7BFF7A0579CADD
:100A7900FE7F031203091212CD7BFF7A047986E403
:100A8900FD7F0112115B7BFF7A047996E4FD7F02F9
:100A990012115B1207688F15E51524F07003020B1C
:100AA90078240370EE7F647E0012117E1211F67FA6
:100AB9000C1211DBE51F70DB7F64FE1212B81212F3
:100AC900107F0C1211DB12122A7F101211DBE51FA5
:100AD90070761212CD7BFF7A0479A6E4FD7F0112AC
:100AE900115B7BFF7A0479B7E4FD7F0212115B7F0A
:100AF900647E0012117EAF20EFFEAD217C00E42D53
:100B0900F537EC3EF536753F03AB37FA7D047F02C6
:100B19001211BE7BFF7A0479BB7D0A7F0212115B39
:100B29007FE87E031212B8E5086003020A9C1212DC
:100B3900E17FE87E031212B81212A27FF47E01123D
:100B490012B8750801020A9C1212CD7BFF7A04794A
:100B5900C3E4FD7F0112115B7BFF7A0479D47D0A1E
:100B69007F0212115B7F647E0012117E020A9CE4EF
:080B7900F5087F64FE12117EF5
:010B81002251
:100D67001212CD7BFF7A0479DCE4FD7F0112115B5F
:100D77007BFF7A0479EDE4FD7F0212115B120768AD
:100D87008F15E515640F70357BFF7A0479FDFD7FBC
:100D97000112115B1212CD1210867F0C1211DB1299
:100DA70012CD7BFF7A05790EE4FD7F0112115B7F7F
:100DB7002C7E011212B87F647E0012117EE515B4F5
:030DC70010BB223C
:100E2B00E4F536751F017BFF7A05791FFD7F0212F2
:100E3B00115BE4F536E5362409FD7BFF7A0579274E
:100E4B007F0212115B7F327E001212B80536E53637
:100E5B00C3940840E07BFF7A057929E4FD7F0212F9
:100E6B00115B1210267F0C1211DBE51F700F7BFF3D
:0D0E7B007A05793AFD7F0212115BE4F5144F
:010E88002247
:100ED7001212CD12125E7BFF7A05794BE4FD7F017A
:100EE70012115B7FF47E011212B8120E2B7FE87E7F
:100EF700031212B87BFF7A05795CE4FD7F011211BA
:0E0F07005B7BFF7A05796DE4FD7F0202115BD2
:06115400015F00015E00D6
:1012E100E4F5A0121275755E017FE87E031212B853
:0312F100021327BE
:1012A200E4F5A0121275755E037FE87E031212B890
:0612B200E4F5A002132781
:03000B0002110AD5
:10110A00C0E0C0F0C0D0758A33758CFE055FE55F1C
:10111A0075F0288485F05FE55FC3955E5004D2A020
:0B112A008002C2A0D0D0D0F0D0E03294
:101275005389F0438901758A18758CFCC28DD28C0F
:07128500D2A9D2AFC2B922C9
:07132700C2A9C28CC2AF2273
:03000000020C0FE0
:0C0C0F00787FE4F6D8FD758160020C5679
:10023900E709F608DFFA8046E709F208DFFA803EA7
:1002490088828C83E709F0A3DFFA8032E309F60894
:10025900DFFA8078E309F208DFFA807088828C83FC
:10026900E309F0A3DFFA806489828A83E0A3F608B0
:10027900DFFA805889828A83E0A3F208DFFA804C8A
:1002890080D280FA80C680D4806980F28033801061
:1002990080A680EA809A80A880DA80E280CA8033CA
:1002A90089828A83ECFAE493A3C8C582C8CCC58342
:1002B900CCF0A3C8C582C8CCC583CCDFE9DEE78012
:1002C9000D89828A83E493A3F608DFF9ECFAA9F091
:1002D900EDFB2289828A83ECFAE0A3C8C582C8CCE7
:1002E900C583CCF0A3C8C582C8CCC583CCDFEADE00
:1002F900E880DB89828A83E493A3F208DFF980CC62
:1003090088F0EF60010E4E60C388F0ED2402B4045A
:100319000050B9F582EB2402B4040050AF23234501
:060329008223900289739B
:10032F00BB010CE58229F582E5833AF583E0225083
:10033F0006E92582F8E622BBFE06E92582F8E222CD
:0D034F00E58229F582E5833AF583E49322E7
:10035C00EF8DF0A4A8F0CF8CF0A428CE8DF0A42EB5
:02036C00FE226F
:10036E00BC000BBE0029EF8DF084FFADF022E4CC73
:10037E00F875F008EF2FFFEE33FEEC33FCEE9DEC3C
:10038E00984005FCEE9DFE0FD5F0E9E4CEFD22ED82
:10039E00F8F5F0EE8420D21CFEADF075F008EF2FCC
:1003AE00FFED33FD4007985006D5F0F222C398FDBD
:0503BE000FD5F0EA225A
:1003C300C2D5EC30E709B2D5E4C39DFDE49CFCEE55
:1003D30030E715B2D5E4C39FFFE49EFE12036EC35C
:1003E300E49DFDE49CFC800312036E30D507C3E457
:0603F3009FFFE49EFE22C4
:1003F900E8600FECC313FCED13FDEE13FEEF13FFE2
:03040900D8F12205
:100C1B00020003E493A3F8E493A34003F68001F2EC
:100C2B0008DFF48029E493A3F85407240CC8C333DA
:100C3B00C4540F4420C8834004F456800146F6DFA9
:100C4B00E4800B0102040810204080901135E47EF3
:100C5B00019360BCA3FF543F30E509541FFEE4939E
:100C6B00A360010ECF54C025E060A840B8E493A365
:100C7B00FAE493A3F8E493A3C8C582C8CAC583CA90
:100C8B00F0A3C8C582C8CAC583CADFE9DEE780BE48
:01115A000094
:00000001FF
